:100000000C94B4010C94D1010C94D1010C94D10145
:100010000C94D1010C94D1010C94D1010C94D10118
:100020000C94D1010C94D1010C94D1010C94D10108
:100030000C94D1010C94D1010C94D1010C94D101F8
:100040000C94D1010C9460040C94D1010C94D10156
:100050000C94D1010C94D1010C94D1010C94D101D8
:100060000C94D1010C94D1010C94D1010C94D101C8
:10007000000000000000000000065F5F06000000B6
:100080000007070007070000147F7F147F7F14001C
:10009000242E6B6B3A120000466630180C66620024
:1000A000307A4F5D377A48000407030000000000F3
:1000B000001C3E63410000000041633E1C00000044
:1000C000082A3E1C1C3E2A0808083E3E080800007C
:1000D00000A0E06000000000080808080808000010
:1000E00000006060000000006030180C0603010092
:1000F0003E7F594D7F3E000042427F7F40400000DE
:10010000627359496F660000226349497F360000D7
:10011000181C16137F7F1000276745457D390000A6
:100120003C7E4B4979300000036371190F070000D2
:10013000367F49497F360000064F49693F1E00005F
:1001400000006C6C0000000000A0EC6C00000000DF
:10015000081C366341000000141414141414000029
:10016000004163361C080000020351590F060000CD
:100170003E7F415D5D1F1E007C7E13137E7C000070
:10018000417F7F49497F36001C3E63414163220025
:10019000417F7F41637F1C00417F7F495D41630058
:1001A000417F7F491D0103001C3E63415173720072
:1001B0007F7F08087F7F000000417F7F41000000B3
:1001C000307040417F3F0100417F7F081C77630012
:1001D000417F7F41406070007F7F060C067F7F007B
:1001E0007F7F060C187F7F001C3E6341633E1C002E
:1001F000417F7F49090F06001E3F21717F5E00008D
:10020000417F7F19396F460026674D597B320000C8
:1002100003417F7F410300007F7F40407F7F0000DC
:100220001F3F60603F1F00007F7F3018307F7F00DE
:1002300063771C081C776300074F78784F0700002E
:100240006773594D47637100007F7F414100000093
:100250000103060C183060000041417F7F00000060
:10026000080C0603060C0800808080808080808057
:100270000000030704000000207454543C78400040
:10028000413F7F44447C3800387C44446C28000063
:10029000307848493F7F4000387C54545C18000057
:1002A000487E7F490302000098BCA4A4F87C0400A7
:1002B000417F7F08047C780000447D7D4000000081
:1002C00040C484FD7D000000417F7F10386C4400F5
:1002D00000417F7F400000007C7C0C180C7C780083
:1002E0007C7C04047C780000387C44447C3800002A
:1002F00084FCF8A4243C1800183C24A4F8FC8400D6
:10030000447C78441C180000485C54547424000059
:1003100000043E7F442400003C7C40403C7C400084
:100320001C3C60603C1C00003C7C6030607C3C00FD
:10033000446C3810386C44009CBCA0A0FC7C0000CD
:100340004C64745C4C64000008083E774141000036
:1003500000000077770000004141773E0808000068
:10036000020301030203010011241FBECFEFD4E0FA
:10037000DEBFCDBF13E0A0E0B1E0E6E5FDE102C0E5
:1003800005900D92A23AB107D9F723E0A2EAB3E0B3
:1003900001C01D92AC3CB207E1F70E940C020C9424
:1003A000A90E0C9400008B98939AF89485B78860F6
:1003B00085BF85B78B7F85BF8BB780688BBF7894EF
:1003C0000895E0910A01F0910B0180818093AC03C4
:1003D00084E18A95F1F78091AC0308958130A9F00A
:1003E00090F0823019F0833019F004C086E00EC01E
:1003F00087E00CC084E391E09F938F930E948E0B63
:100400000F900F90089584E001C085E0E0910A010B
:10041000F0910B01808308958FE190E00E944E09D6
:100420000E94B6080E94D3010E94BD080E94C0032A
:1004300080E094E00E943A050E9406070E94C207ED
:100440002FEF8FEF92E0215080409040E1F700C005
:1004500000C0F4CF8091AF039091B0038038910534
:10046000BCF0EFEAF3E0808191818058910991839B
:100470008083EDEAF3E0808191810196918380830E
:1004800080819181089724F01092AE031092AD0301
:100490000895EF92FF920F931F93CF93DF938052B3
:1004A00020910C0130910D011216130684F5E82EEF
:1004B000F12CC701880F991F880F991F880F991F6A
:1004C000C0E0D0E09C0120593F4F79010FEA13E0D2
:1004D000F701EC0FFD1F85919491E0910E01F091D1
:1004E0000F018083F8012081318180910C0190916E
:1004F0000D01820F931F918380830E942A0221960F
:1005000080910C0190910D01C817D9070CF380E080
:1005100090E0DF91CF911F910F91FF90EF900895A0
:10052000EF92FF920F931F93CF93DF93805220910E
:100530000C0130910D01121613068CF5E82EF12CEA
:10054000C701880F991F880F991F880F991FC0E056
:10055000D0E09C0120593F4F79010FEA13E0F701E9
:10056000EC0FFD1F859194918095E0910E01F09123
:100570000F018083F8012081318180910C019091DD
:100580000D01820F931F918380830E942A0221967E
:1005900080910C0190910D01C817D90704F380E0F8
:1005A00090E0DF91CF911F910F91FF90EF90089510
:1005B000E0911001F091110190E29083E09110011F
:1005C000F091110180830895CF93DF93CDB7DEB70B
:1005D000FE01359661917191AF0180E291E00E9438
:1005E000CF0BDF91CF910895CF93DF93CDB7DEB7D7
:1005F000FE01359661917191AF0182E191E00E9417
:10060000CF0BDF91CF910895FC0101900020E9F715
:100610003197E81BF90B80910C0190910D01E89F37
:100620009001E99F300DF89F300D112481E090E09A
:100630002138310510F480E090E00895CF93DF93E6
:10064000EC018830910580F49093AE038093AD0364
:1006500082E00E94D802C055E0911001F091110192
:10066000C08380E00E94D802DF91CF910895CF939C
:10067000DF93EC018038910550F59093B00380939F
:10068000AF0382E00E94D802CE018F709078992348
:1006900024F40197806F9F6F0196E0911001F09113
:1006A00011018083CE01DD230CF40F96959587957B
:1006B000959587959595879595958795805FE09118
:1006C0001001F0911101808380E00E94D802DF9137
:1006D000CF910895FC0101900020E9F73197E81BC4
:1006E000F90B80910C0190910D01E89F9001E99F19
:1006F000300DF89F300D11243695279580E490E059
:10070000821B930B0E9437030895CF93DF93EB0175
:100710000E941E03CE010E943703DF91CF910895FE
:1007200060E070E080E090E00E9485030895CF9340
:10073000DF93EC0160E070E00E94850320E830E088
:10074000E0910E01F0910F01108221503109211525
:100750003105B1F7CE010E941E03DF91CF910895BC
:10076000CF93DF93C0E0D0E0CE010E9497032196A3
:10077000C830D105C9F70E949003DF91CF91089549
:10078000E0911001F09111018EEA8083E091100157
:10079000F091110181EA8083E0911001F091110143
:1007A0008AED8083E0911001F091110182E1808354
:1007B000E0911001F091110188EC8083E09110012B
:1007C000F091110188EA8083E0911001F09111010C
:1007D0008FE38083E0911001F091110185ED80831A
:1007E000E0911001F091110180E88083E091100107
:1007F000F091110181E88083E0911001F0911101E5
:1008000080E58083E0911001F091110189ED8083F2
:10081000E0911001F091110181E28083E0911001DB
:10082000F091110180E28083E0911001F0911101BB
:1008300082E08083E0911001F09111018BED8083C3
:10084000E0911001F091110180E38083E0911001AB
:10085000F09111018DEA8083E0911001F091110176
:100860001082E0911001F091110184EA8083E091FF
:100870001001F091110186EA8083E0911001F0915E
:1008800011018FEA80830E94B0030895CF93DF9314
:10089000EC0160E070E00E94850320E830E08FEF1B
:1008A000E0910E01F0910F01808321503109211553
:1008B0003105B1F7CE010E941E03DF91CF9108955B
:1008C0001F920F920FB60F9211242F933F934F93C5
:1008D0005F936F937F938F939F93AF93BF93CF93C8
:1008E000EF93FF930E94E101282F30E040E050E0B9
:1008F0009091B103913071F138F0923009F450C009
:10090000933009F469C082C08091BC039091BD030B
:10091000AA2797FDA095BA2F281B390B4A0B5B0B12
:10092000A8ECB0E00E947A092091310130E04091BA
:10093000A503241B3109442737FD4095542F0E94FD
:100940005B093093B3032093B20381E08093B1033A
:10095000C1E05CC08091B8039091B903AA2797FDCC
:10096000A095BA2F281B390B4A0B5B0BA8ECB0E003
:100970000E947A092091300130E04091A403241BA9
:100980003109442737FD4095542F0E945B0930936D
:10099000BB032093BA0382E08093B103C2E036C068
:1009A000A8ECB0E00E947A0920912F0130E040913C
:1009B000A303241B3109442737FD4095542F0E947F
:1009C0005B09245631093093B5032093B40383E0C7
:1009D0008093B103C3E01AC0A8ECB0E00E947A098A
:1009E00020912E0130E04091A203241B31094427BD
:1009F00037FD4095542F0E945B09245631093093EE
:100A0000B7032093B6031092B103C0E08C2F0E946D
:100A1000EE01FF91EF91CF91BF91AF919F918F9197
:100A20007F916F915F914F913F912F910F900FBEEA
:100A30000F901F90189580E00E94EE0189EF90E0E2
:100A40000197F1F700C000000E94E1019093BD03FF
:100A50008093BC0381E00E94EE0189EF90E0019752
:100A6000F1F700C000000E94E1019093B903809368
:100A7000B8030895CF93DF93EC01B898C09ABA9861
:100A8000BB980E941B051092B10380E00E94EE010A
:100A9000F89482E089BFC11581E0D80719F484E099
:100AA00083BF05C0C115D44011F485E083BF78949D
:100AB000DF91CF910895813059F018F0823061F0C4
:100AC0000FC096B381E08927282F217030E012C033
:100AD00026B3287030E00EC026B3247030E00AC080
:100AE00080E691E09F938F930E948E0B0F900F9062
:100AF00021E030E0C90108954091B2035091B30361
:100B00002091BA033091BB03BA01C90108950E9434
:100B10007C052091B2033091B3038091BA03909188
:100B2000BB03B901332324F466277727621B730BB9
:100B3000AC01992324F444275527481B590B64170B
:100B400075074CF0C9010996439790F0832F881FD1
:100B50008827881F08959C01205C3F4F213831056C
:100B600048F09095991F9927991F83E0891B089554
:100B700084E0089584E008950F931F93CF93DF934B
:100B80008C01EB0188E090E00E94B609FC01118322
:100B90000083D383C2831782168215821482DF9169
:100BA000CF911F910F910895DC011496ED91FC9166
:100BB0001597309779F00680F781E02D309769F02E
:100BC00021E030E02F5F3F4F0680F781E02D309726
:100BD000C9F706C080E090E0089581E090E00895B4
:100BE000822F932F0895CF93DF93EC010E946A0325
:100BF0008881882349F0219690E00E943B0B0E9457
:100C0000490289918111F8CF60E070E082E090E0C4
:100C10000E948503DF91CF910895EF92FF920F9389
:100C20001F93CF93DF93EC018091AA039091AB03C4
:100C30008F3F2FEF920734F401969093AB0380938C
:100C4000AA03DDC08091A8039091A9038F3F2FEFE5
:100C5000920734F401969093A9038093A803CFC020
:100C60000E94B0038091A8039091A903019621F4FA
:100C70001092A9031092A803288139818091A803BA
:100C80009091A903820F931F0E940403892B81F086
:100C90008091A8039091A90301969093A903809352
:100CA000A80328813981820F931F0E94F30516C083
:100CB0008091A8039091A903181619065CF4888105
:100CC00099810E94F3058BEF9FEF9093A903809386
:100CD000A80304C0888199810E94F3050C80DD81FE
:100CE000C02D2091A6033091A703121613060CF015
:100CF0007BC080E090E00E80DF81C02D01968217DE
:100D00009307C9F771C060E070E0C8010E948503D5
:100D100080913201909133012091A6033091A70375
:100D2000200F311F2817390709F04AC0C8010E9457
:100D300046048091AA039091AB03019621F410928E
:100D4000AB031092AA03288139818091AA03909164
:100D5000AB03820F931F0E940403892BA1F08091A3
:100D6000AA039091AB0301969093AB038093AA03DF
:100D700028813981820F931F9F938F930E94F402E1
:100D80000F900F9025C08091AA039091AB03181685
:100D900019066CF489818F9388818F930E94F402E5
:100DA000F092AB03E092AA030F900F9011C08981DB
:100DB0008F9388818F930E94F4020F900F9008C048
:100DC00089818F9388818F930E94E4020F900F9006
:100DD0000F5F1F4F0E80DF81C02D209781F00730FD
:100DE000110509F090CF0BC0209749F002E010E008
:100DF0000F2EFBEFEF2EFF24FA94F02D84CFDF911E
:100E0000CF911F910F91FF90EF9008956F927F9275
:100E10008F929F92AF92BF92CF92DF92EF92FF920A
:100E20000F931F93CF93DF9360E070E088EC91E025
:100E30000E94BC053C01BC0182ED91E00E94BC0512
:100E40005C01B3018DED91E00E94BC054C01B30142
:100E500087EE91E00E94BC056C01B3018AEF91E03E
:100E60000E94BC05EC01BC0189E092E00E94BC0537
:100E70007C01BE0180E192E00E94BC058C01BE01B4
:100E80008DE192E00E94BC05F30195828482F40119
:100E9000B782A682F501D782C682F601D783C683C0
:100EA000FD82EC82F70117830683F801978386831E
:100EB0007092BF036092BE03C3010E94D405909359
:100EC000C1038093C003C3010E940D068091BE033D
:100ED0009091BF03DF91CF911F910F91FF90EF9001
:100EE000DF90CF90BF90AF909F908F907F906F904A
:100EF0000895CF93DF931092A7031092A603C09199
:100F0000BE03D091BF038230B9F40C80DD81C02DC7
:100F1000809132019091330103979CF082E090E040
:100F20000E80DF81C02D0196209132013091330176
:100F300082179307ACF305C0813019F40A80DB8176
:100F4000C02D2097E1F0D093BF03C093BE03CE0124
:100F50000E94D4059093C1038093C00382E090E087
:100F600090933301809332011092AB031092AA0345
:100F70001092A9031092A803CE010E940D06DF91E2
:100F8000CF9108950E948705823009F04FC01092DA
:100F9000AB031092AA031092A9031092A8038091A8
:100FA0003201909133010197909333018093320184
:100FB00080913201909133010297ECF4209132013B
:100FC000309133018091C0039091C103820F931F30
:100FD00090933301809332018091C0039091C103BB
:100FE00007974CF08091C0039091C10305979093AF
:100FF000A7038093A6038091A6039091A703209155
:10100000320130913301AC014E5F5F4F2417350739
:101010002CF401979093A7038093A6038091BE03BD
:101020009091BF030E940D0680E00895833009F07F
:101030003FC01092AB031092AA031092A903109222
:10104000A80380913201909133010196909333016E
:10105000809332012091C0033091C103809132010D
:10106000909133012E5F3F4F8217930754F082E037
:1010700090E090933301809332011092A703109275
:10108000A603809132019091330107974CF0809133
:1010900032019091330106979093A7038093A603A2
:1010A0008091BE039091BF030E940D0680E00895D9
:1010B00082E00E945B05892B89F182E00E9479071A
:1010C000E091BE03F091BF03808191818D5D9140DD
:1010D00009F440C080819181825D914009F43CC057
:1010E00080819181875E9140C9F180819181895091
:1010F000924051F484E392E09F938F930E948E0B71
:101100000F900F9086E008958081918180519240E8
:1011100039F1808191818D51924021F181E00E94CD
:101120005B05892B19F081E00E9479078091AA0361
:101130009091AB03892B31F48091A8039091A9037E
:10114000892B91F08091BE039091BF030E940D0600
:1011500080E0089581E0089584E0089585E0089591
:1011600087E0089588E0089580E0089585B7806855
:1011700085BF80B7806280BF0895CF92DF92EF92E3
:10118000FF920F931F93CF93DF938FE190E00E9424
:101190004E0989EB92E00E94A20B0E942B0B6C017E
:1011A0000E94300BC0E0D0E000E010E00F2EFFEC1A
:1011B000EF2EF2E0FF2EF02D0E942B0BFE01F85EC9
:1011C000808320812817A9F099279F938F931F92DE
:1011D0002F93DF93CF93FF92EF920E948E0B0F5FBE
:1011E0001F4F8DB79EB708960FB6F8949EBF0FBEDF
:1011F0008DBF2196C11598E0D907F1F6C6010E946E
:10120000300BC0E0D0E0E12CF12C0F2EF9E0CF2E16
:10121000F3E0DF2EF02D0E942B0BFE01F85E208103
:101220002817B1F099279F938F931F922F93DF93E5
:10123000CF93DF92CF920E948E0B8FEFE81AF80ABD
:101240008DB79EB708960FB6F8949EBF0FBE8DBFA0
:101250002196C11598E0D907F1F6FF92EF921F93FE
:101260000F9387E493E09F938F930E948E0B0F90D0
:101270000F900F900F900F900F90DF91CF911F91D3
:101280000F91FF90EF90DF90CF9008955D9BFECF80
:101290008CB908955F9BFECF8CB1089590BD89B93C
:1012A00088E18AB98EE880BD6AE479E086E499E055
:1012B0000E94430B0895052E97FB1EF400940E9494
:1012C000720957FD07D00E94850907FC03D04EF430
:1012D0000C94720950954095309521953F4F4F4F92
:1012E0005F4F089590958095709561957F4F8F4FD2
:1012F0009F4F08950E94A709A59F900DB49F900D40
:10130000A49F800D911D11240895A1E21A2EAA1BFD
:10131000BB1BFD010DC0AA1FBB1FEE1FFF1FA217A5
:10132000B307E407F50720F0A21BB30BE40BF50BA2
:10133000661F771F881F991F1A9469F7609570952B
:10134000809590959B01AC01BD01CF010895A29FAE
:10135000B001B39FC001A39F700D811D1124911D89
:10136000B29F700D811D1124911D0895CF93DF93BD
:101370008230910510F482E090E0E091C403F09196
:10138000C50320E030E0A0E0B0E0309739F14081C3
:10139000518148175907B8F04817590771F48281ED
:1013A0009381109729F013969C938E9312972CC0DB
:1013B0009093C5038093C40327C02115310531F0F4
:1013C0004217530718F0A901DB0101C0EF019A0190
:1013D000BD01DF010280F381E02DD7CF211531055A
:1013E000F9F0281B390B2430310580F48A819B8168
:1013F0006115710521F0FB019383828304C09093F2
:10140000C5038093C403FE01329644C0FE01E20F7F
:10141000F31F8193919322503109398328833AC075
:101420002091C2033091C303232B41F42091020188
:10143000309103013093C3032093C2032091000134
:10144000309101012115310541F42DB73EB740918E
:10145000040150910501241B350BE091C203F0916A
:10146000C303E217F307A0F42E1B3F0B281739071D
:1014700078F0AC014E5F5F4F2417350748F04E0FF0
:101480005F1F5093C3034093C2038193919302C0A3
:10149000E0E0F0E0CF01DF91CF910895CF93DF93AB
:1014A000009709F487C0FC01329713821282C09121
:1014B000C403D091C503209781F420813181280F86
:1014C000391F8091C2039091C3038217930779F566
:1014D000F093C303E093C2036DC0DE0120E030E06F
:1014E000AE17BF0750F412964D915C9113979D0172
:1014F0004115510509F1DA01F3CFB383A28340818D
:101500005181840F951F8A179B0771F48D919C91CF
:101510001197840F951F02969183808312968D9167
:101520009C911397938382832115310529F4F093BD
:10153000C503E093C4033EC0D9011396FC93EE9318
:1015400012974D915D91A40FB51FEA17FB0779F42F
:1015500080819181840F951F0296D90111969C93E9
:101560008E938281938113969C938E931297E0E0E1
:10157000F0E08A819B81009719F0FE01EC01F9CF20
:10158000CE01029628813981820F931F2091C203D8
:101590003091C3032817390769F4309729F4109262
:1015A000C5031092C40302C013821282D093C303F6
:1015B000C093C203DF91CF9108958F929F92AF9213
:1015C000BF92CF92DF92EF92FF92CF93DF93EC0125
:1015D000688179818A819B816115710581059105F9
:1015E00021F464E279ED8BE597E02DE133EF41E002
:1015F00050E00E945B0949015A019B01AC01A7EA36
:10160000B1E40E947A096B017C01ACEEB4EFA50154
:1016100094010E946D0EC60ED71EE81EF91EF7FE3D
:1016200006C081E0C81AD108E10880E8F80AC8823B
:10163000D982EA82FB82C6019F77DF91CF91FF902A
:10164000EF90DF90CF90BF90AF909F908F900895D4
:101650000E94DD0A089586E091E00E94DD0A089567
:10166000A0E0B0E08093060190930701A0930801E9
:10167000B093090108959111089581568A5108F493
:101680008052855808950F931F93CF93DF93EC01F9
:101690008B01009731F46115710519F480E090E039
:1016A00038C06EE070E081E090E00E94A10DFC0186
:1016B0000097A1F380E883830115110571F013876A
:1016C000028781E883838091C6039091C703892BA9
:1016D00021F4F093C703E093C6032097C9F0D187A4
:1016E000C0878381826083838091C8039091C903FE
:1016F000892B71F4F093C903E093C8038091CA0366
:101700009091CB03892B21F4F093CB03E093CA0390
:10171000CF01DF91CF911F910F910895A0E0B0E02C
:10172000E4E9FBE00C94820EFE0135966191719123
:10173000AF018091C8039091C9030E94CF0BE2E0F2
:101740000C949E0E0F931F93CF93DF93E091C803E9
:10175000F091C903238121FF1BC0EC0100E010E0E0
:1017600089916091C8037091C903DB011896ED91CE
:10177000FC911997882331F00995892B89F30FEF94
:101780001FEFEECF8AE00995892B11F4C80102C042
:101790008FEF9FEFDF91CF911F910F910895ACE0F4
:1017A000B0E0E5EDFBE00C94720E7C016B018A0168
:1017B000FC0117821682838181FFBDC1CE01019693
:1017C0004C01F7019381F60193FD859193FF81917F
:1017D0006F01882309F4ABC1853239F493FD8591FB
:1017E00093FF81916F01853229F4B70190E00E9447
:1017F000DA0DE7CF512C312C20E02032A0F48B32CF
:1018000069F030F4803259F0833269F420612CC0E1
:101810008D3239F0803339F4216026C02260246093
:1018200023C0286021C027FD27C030ED380F3A3093
:1018300078F426FF06C0FAE05F9E300D1124532E87
:1018400013C08AE0389E300D1124332E20620CC064
:101850008E3221F426FD6BC1206406C08C3611F453
:10186000206802C0883641F4F60193FD859193FF0C
:1018700081916F018111C1CF982F9F7D9554933035
:1018800028F40C5F1F4FFFE3F9830DC0833631F05E
:10189000833771F0833509F05BC022C0F801808185
:1018A00089830E5F1F4F44244394512C540115C06B
:1018B0003801F2E06F0E711CF801A080B18026FFA4
:1018C00003C0652D70E002C06FEF7FEFC5012C876C
:1018D0000E94CF0D2C0183012C852F77222E17C05B
:1018E0003801F2E06F0E711CF801A080B18026FF74
:1018F00003C0652D70E002C06FEF7FEFC5012C873C
:101900000E94BD0D2C012C852068222E830123FC12
:101910001BC0832D90E048165906B0F4B70180E251
:1019200090E00E94DA0D3A94F4CFF50127FC8591FE
:1019300027FE81915F01B70190E00E94DA0D31101E
:101940003A94F1E04F1A51084114510471F7E5C07F
:10195000843611F0893639F5F80127FF07C0608118
:101960007181828193810C5F1F4F08C060817181FA
:10197000882777FD8095982F0E5F1F4F2F76B22E08
:1019800097FF09C090958095709561957F4F8F4F17
:101990009F4F2068B22E2AE030E0A4010E940C0E76
:1019A000A82EA81844C0853729F42F7EB22E2AE02D
:1019B00030E025C0F22FF97FBF2E8F36C1F018F42A
:1019C000883579F0B4C0803719F0883721F0AFC07E
:1019D0002F2F2061B22EB4FE0DC08B2D8460B82E47
:1019E00009C024FF0AC09F2F9660B92E06C028E0C8
:1019F00030E005C020E130E002C020E132E0F80133
:101A0000B7FE07C060817181828193810C5F1F4F97
:101A100006C06081718180E090E00E5F1F4FA401DD
:101A20000E940C0EA82EA818FB2DFF77BF2EB6FE25
:101A30000BC02B2D2E7FA51450F4B4FE0AC0B2FCAF
:101A400008C02B2D2E7E05C07A2C2B2D03C07A2C9E
:101A500001C0752C24FF0DC0FE01EA0DF11D80812F
:101A6000803311F4297E09C022FF06C07394739459
:101A700004C0822F867809F0739423FD13C020FFE1
:101A800006C05A2C731418F4530C5718732C731483
:101A900068F4B70180E290E02C870E94DA0D73941D
:101AA0002C85F5CF731410F4371801C0312C24FFA6
:101AB00012C0B70180E390E02C870E94DA0D2C85DC
:101AC00022FF17C021FF03C088E590E002C088E72D
:101AD00090E0B7010CC0822F867859F021FD02C03A
:101AE00080E201C08BE227FD8DE2B70190E00E9409
:101AF000DA0DA51438F4B70180E390E00E94DA0D06
:101B00005A94F7CFAA94F401EA0DF11D8081B70130
:101B100090E00E94DA0DA110F5CF332009F451CEE8
:101B2000B70180E290E00E94DA0D3A94F6CFF70117
:101B30008681978102C08FEF9FEF2C96E2E10C9493
:101B40008E0E0F931F93CF93DF93869F8001879F05
:101B5000100D969F100D1124C8010E94B609EC01CA
:101B6000009729F0A80160E070E00E94C80DCE0146
:101B7000DF91CF911F910F910895FC010590615065
:101B800070400110D8F7809590958E0F9F1F089593
:101B9000DC0101C06D9341505040E0F70895FC0115
:101BA0006150704001900110D8F7809590958E0F8C
:101BB0009F1F08950F931F93CF93DF93182F092F23
:101BC000EB018B8181FD03C08FEF9FEF20C082FF6F
:101BD00010C04E815F812C813D81421753077CF4F8
:101BE000E881F9819F012F5F3F4F3983288310835C
:101BF00006C0E885F985812F0995892B29F72E8163
:101C00003F812F5F3F4F3F832E83812F902FDF91A6
:101C1000CF911F910F910895FA01AA27283051F111
:101C2000203181F1E8946F936E7F6E5F7F4F8F4F0D
:101C30009F4FAF4FB1E03ED0B4E03CD0670F781F6C
:101C4000891F9A1FA11D680F791F8A1F911DA11D51
:101C50006A0F711D811D911DA11D20D009F468948A
:101C60003F912AE0269F11243019305D3193DEF632
:101C7000CF010895462F4770405D4193B3E00FD0E8
:101C8000C9F7F6CF462F4F70405D4A3318F0495DD3
:101C900031FD4052419302D0A9F7EACFB4E0A695B6
:101CA0009795879577956795BA95C9F700976105D8
:101CB000710508959B01AC010A2E0694579547952E
:101CC00037952795BA95C9F7620F731F841F951F23
:101CD000A01D0895B7FF0C947A090E947A09821B0F
:101CE000930B08952F923F924F925F926F927F9243
:101CF0008F929F92AF92BF92CF92DF92EF92FF921C
:101D00000F931F93CF93DF93CDB7DEB7CA1BDB0BC7
:101D10000FB6F894DEBF0FBECDBF09942A8839886C
:101D200048885F846E847D848C849B84AA84B98473
:101D3000C884DF80EE80FD800C811B81AA81B9817F
:101D4000CE0FD11D0FB6F894DEBF0FBECDBFED0193
:061D50000895F894FFCF96
:101D56000000CC032000010000000014080000125F
:101D660000100000000200000000900200000000C9
:101D76000000000200000000490200000000FFFF12
:101D8600FFFF02004E6F742076616C696420636801
:101D9600616E6E656C00416472657373653A2025E9
:101DA60064202C20646174613A202564200A0D00A9
:101DB6004E6F742076616C696420627574746F6E00
:101DC600000D526967687420427574746F6E204FF7
:101DD6004E000D526967687420427574746F6E20E8
:101DE6004F4646000D4C65667420427574746F6EDE
:101DF600204F4E000D4C65667420427574746F6EEC
:101E0600204F464600204F7574206F66206D656D25
:101E16006F727921004F4B004D61696E204D656EE2
:101E260075004869676873636F72657300506C610B
:101E3600792047616D650043616C69627261746502
:101E4600204A6F79737469636B0053657420446923
:101E560066666963756C7479004E657762696500BC
:101E6600496E7465726D65646961746500596F7554
:101E760020676F7420776861742069742054616BE1
:101E86006573210053656C6563746564206E6577C0
:101E960062696500484156452046554E2100474136
:101EA6004D45204F5645522100504C41592041473F
:101EB60041494E3F004E4F20202020202F20202039
:101EC6002020594553005341564520484947485319
:101ED600434F52453F004849474853434F524553A5
:101EE6003A0043414C494252415445442100444939
:101EF60046464943554C54592053455421005352A4
:101F0600414D206572726F72005374617274696E0E
:101F160067205352414D20746573742E2E2E000A8D
:101F26005772697465207068617365206572726F97
:101F3600723A206578745F72616D5B2534645D204A
:101F46003D2025303258202873686F756C642062F6
:101F5600652025303258290D000A5265747269656C
:101F660076616C207068617365206572726F723A73
:101F7600206578745F72616D5B2534645D203D2059
:101F860025303258202873686F756C64206265208E
:101F960025303258290D005352414D207465737413
:101FA60020636F6D706C6574656420776974682052
:101FB6000A253464206572726F727320696E207709
:101FC6007269746520706861736520616E64200AA9
:101FD600253464206572726F727320696E20726593
:101FE6007472696576616C2070686173650D0A0AA2
:021FF6000000E9
:00000001FF
